{
  "abi": [
    {
      "inputs": [
        {
          "internalType": "address",
          "name": "_implementation",
          "type": "address"
        },
        {
          "internalType": "address",
          "name": "_owner",
          "type": "address"
        }
      ],
      "stateMutability": "nonpayable",
      "type": "constructor"
    },
    {
      "stateMutability": "payable",
      "type": "fallback"
    },
    {
      "inputs": [],
      "name": "implementation",
      "outputs": [
        {
          "internalType": "address",
          "name": "",
          "type": "address"
        }
      ],
      "stateMutability": "view",
      "type": "function"
    },
    {
      "inputs": [],
      "name": "owner",
      "outputs": [
        {
          "internalType": "address",
          "name": "",
          "type": "address"
        }
      ],
      "stateMutability": "view",
      "type": "function"
    },
    {
      "stateMutability": "payable",
      "type": "receive"
    }
  ],
  "bytecode": {
    "object": "0x60a060405234801561001057600080fd5b5060405161020938038061020983398101604081905261002f91610076565b6001600160a01b03908116608052600080546001600160a01b031916929091169190911790556100a9565b80516001600160a01b038116811461007157600080fd5b919050565b6000806040838503121561008957600080fd5b6100928361005a565b91506100a06020840161005a565b90509250929050565b6080516101406100c960003960008181603f015260e801526101406000f3fe60806040526004361061002d5760003560e01c80635c60da1b1461009a5780638da5cb5b146100d657610034565b3661003457005b336001600160a01b037f0000000000000000000000000000000000000000000000000000000000000000161461006957600080fd5b600080546001600160a01b03169036908037600080366000845af43d6000803e808015610095573d6000f35b3d6000fd5b3480156100a657600080fd5b506000546100ba906001600160a01b031681565b6040516001600160a01b03909116815260200160405180910390f35b3480156100e257600080fd5b506100ba7f00000000000000000000000000000000000000000000000000000000000000008156fea2646970667358221220858bfec6875b429f9e78c6b2192c92d26307d24b281bb9995b6ae1799ab06a8d64736f6c634300080a0033",
    "linkReferences": {}
  },
  "methodIdentifiers": {
    "implementation()": "5c60da1b",
    "owner()": "8da5cb5b"
  },
  "id": 16
}